:100000000C9453000C947B000C947B000C947B00AC
:100010000C947B000C947B000C947B000C947B0074
:100020000C947B000C947B000C947B000C947B0064
:100030000C947B000C947B000C947B000C947B0054
:100040000C94BB010C947B000C942B020C940502C5
:100050000C947B000C947B000C947B000C947B0034
:100060000C947B000C947B0000000000250028000D
:100070002B0000000000240027002A0004040404D0
:100080000404040402020202020203030303030342
:10009000010204081020408001020408102001021F
:1000A00004081020080311241FBECFEFD8E0DEBFE4
:1000B000CDBF11E0A0E0B1E0EAE7F6E002C00590B4
:1000C0000D92A232B107D9F721E0A2E2B1E001C05E
:1000D0001D92A83CB207E1F710E0C3E5D0E004C0F0
:1000E0002197FE010E943503C235D107C9F70E944E
:1000F0005D020C943B030C940000AF92BF92CF9230
:10010000DF92EF92FF920F931F93CF93DF936C01D7
:100110007B018B01040F151FEB015E01AE18BF08B8
:10012000C017D10759F06991D601ED91FC9101906A
:10013000F081E02DC6010995892B79F7C501DF9182
:10014000CF911F910F91FF90EF90DF90CF90BF90D4
:10015000AF900895FC01538D448D252F30E0842FFE
:1001600090E0821B930B541710F0CF9608950197DF
:100170000895FC01918D828D981761F0A28DAE0FCC
:10018000BF2FB11D5D968C91928D9F5F9F73928F53
:1001900090E008958FEF9FEF0895FC01918D828D7F
:1001A000981731F0828DE80FF11D858D90E008954C
:1001B0008FEF9FEF0895FC01918D228D892F90E0A4
:1001C000805C9F4F821B91098F739927089582E26B
:1001D00091E00E94DB0021E0892B09F420E0822FCE
:1001E000089580E090E0892B29F00E94E7008111BA
:1001F0000C9400000895FC01A48DA80FB92FB11D27
:10020000A35ABF4F2C91848D90E001968F7399274C
:10021000848FA689B7892C93A089B1898C9183702A
:1002200080648C93938D848D981306C00288F38923
:10023000E02D80818F7D80830895EF92FF920F9350
:100240001F93CF93DF93EC0181E0888F9B8D8C8D82
:1002500098131AC0E889F989808185FF15C09FB776
:10026000F894EE89FF896083E889F9898081837039
:10027000806480839FBF81E090E0DF91CF911F91E8
:100280000F91FF90EF900895F62E0B8D10E00F5F09
:100290001F4F0F731127E02E8C8D8E110CC00FB6DF
:1002A00007FCFACFE889F989808185FFF5CFCE0177
:1002B0000E94FB00F1CFEB8DEC0FFD2FF11DE35AF7
:1002C000FF4FF0829FB7F8940B8FEA89FB898081FA
:1002D0008062CFCFCF93DF93EC01888D8823B9F074
:1002E000AA89BB89E889F9898C9185FD03C0808141
:1002F00086FD0DC00FB607FCF7CF8C9185FFF2CFBE
:10030000808185FFEDCFCE010E94FB00E9CFDF9118
:10031000CF910895CF93DF9390E0FC01E057FF4F1A
:10032000249184589F4FFC0184918823D1F090E060
:10033000880F991FFC01EE58FF4FA591B491FC0165
:10034000E859FF4FC591D49161110EC09FB7F89441
:100350008C91E22FE0958E238C932881E223E88311
:100360009FBFDF91CF9108958FB7F894EC91E22B66
:10037000EC938FBFF6CF1F920F920FB60F921124FE
:100380002F933F938F939F93AF93BF938091C4011B
:100390009091C501A091C601B091C7013091C301F0
:1003A00023E0230F2D3758F50196A11DB11D209391
:1003B000C3018093C4019093C501A093C601B0937B
:1003C000C7018091BF019091C001A091C101B0917E
:1003D000C2010196A11DB11D8093BF019093C00180
:1003E000A093C101B093C201BF91AF919F918F9132
:1003F0003F912F910F900FBE0F901F90189526E8F8
:10040000230F0296A11DB11DD2CF1F920F920FB6DE
:100410000F9211242F933F934F935F936F937F938A
:100420008F939F93AF93BF93EF93FF9382E291E0FB
:100430000E94FB00FF91EF91BF91AF919F918F912F
:100440007F916F915F914F913F912F910F900FBED0
:100450000F901F9018951F920F920FB60F921124B4
:100460002F938F939F93EF93FF93E0913201F0913D
:1004700033018081E0913801F091390182FD1BC088
:10048000908180913B018F5F8F7320913C01821797
:1004900041F0E0913B01F0E0EE5DFE4F958F8093DF
:1004A0003B01FF91EF919F918F912F910F900FBE84
:1004B0000F901F9018958081F4CF789484B5826056
:1004C00084BD84B5816084BD85B5826085BD85B5F8
:1004D000816085BD80916E00816080936E00109276
:1004E00081008091810082608093810080918100F1
:1004F0008160809381008091800081608093800082
:100500008091B10084608093B1008091B0008160DF
:100510008093B00080917A00846080937A0080910B
:100520007A00826080937A0080917A008160809363
:100530007A0080917A00806880937A001092C100DE
:10054000E0913201F091330182E08083E0912E014D
:10055000F0912F011082E0913001F09131018FEC88
:10056000808310923A01E0913601F091370186E0E4
:100570008083E0913401F091350180818061808336
:10058000E0913401F0913501808188608083E091B1
:100590003401F0913501808180688083E0913401DD
:1005A000F091350180818F7D80834BE050E062E1E6
:1005B00071E082E291E00E947D0042E050E06EE155
:1005C00071E082E291E00E947D0060E082E00E94A2
:1005D0008A0161E084E00E948A0161E085E00E9476
:1005E0008A0161E086E00E948A0160E08EE00E945C
:1005F0008A0160E08FE00E948A01C0E0D0E020978D
:10060000F1F30E94E7008823D1F30E940000F7CFA6
:10061000E2E2F1E01382128288EE93E0A0E0B0E023
:1006200084839583A683B78384E091E0918380835C
:1006300085EC90E09587848784EC90E097878687A7
:1006400080EC90E0918B808B81EC90E0938B828B9F
:1006500082EC90E0958B848B86EC90E0978B868B78
:10066000118E128E138E148E0895EE0FFF1F0590BB
:0A067000F491E02D0994F894FFCFF7
:10067A00000000001D017D00AA006A01DB00B9002C
:10068A00CD0048656C6C6F20576F726C64000D0A60
:02069A0000005E
:00000001FF
